{
  "address": "0xD4794d64BC2981536503f9C989142851e4F2e684",
  "abi": [
    {
      "anonymous": false,
      "inputs": [
        {
          "indexed": true,
          "internalType": "address",
          "name": "persona",
          "type": "address"
        },
        {
          "indexed": false,
          "internalType": "string",
          "name": "contenido",
          "type": "string"
        }
      ],
      "name": "NewNote",
      "type": "event"
    },
    {
      "inputs": [
        {
          "internalType": "string",
          "name": "_contenido",
          "type": "string"
        }
      ],
      "name": "addNote",
      "outputs": [],
      "stateMutability": "nonpayable",
      "type": "function"
    }
  ],
  "transactionHash": "0xeb9d2f1c244094620bfc832c6818438cde3d5c01c0549ae7a1f6d3b52fd3f225",
  "args": [],
  "numDeployments": 1,
  "solcInputHash": "4efda8d13c3f6d8a69645590ffd9a3e2",
  "bytecode": "0x608060405234801561001057600080fd5b50610214806100206000396000f3fe608060405234801561001057600080fd5b506004361061002b5760003560e01c8063a4edff4714610030575b600080fd5b61004a6004803603810190610045919061010f565b61004c565b005b3373ffffffffffffffffffffffffffffffffffffffff167ff2555d00e065d582c4653357dbcf43cf8e0d291c35cc0faad6cf8467e8398c9283836040516100949291906101ba565b60405180910390a25050565b600080fd5b600080fd5b600080fd5b600080fd5b600080fd5b60008083601f8401126100cf576100ce6100aa565b5b8235905067ffffffffffffffff8111156100ec576100eb6100af565b5b602083019150836001820283011115610108576101076100b4565b5b9250929050565b60008060208385031215610126576101256100a0565b5b600083013567ffffffffffffffff811115610144576101436100a5565b5b610150858286016100b9565b92509250509250929050565b600082825260208201905092915050565b82818337600083830152505050565b6000601f19601f8301169050919050565b6000610199838561015c565b93506101a683858461016d565b6101af8361017c565b840190509392505050565b600060208201905081810360008301526101d581848661018d565b9050939250505056fea26469706673582212200649dd386a53f72e848257ecc43ce6b7ed0ebcb22b0f1eb9bef2c055e812e1ae64736f6c63430008090033",
  "devdoc": {
    "kind": "dev",
    "methods": {},
    "version": 1
  },
  "userdoc": {
    "kind": "user",
    "methods": {},
    "version": 1
  },
  "storageLayout": {
    "storage": [],
    "types": null
  }
}